{
  "_format": "hh-sol-artifact-1",
  "contractName": "Muskoin",
  "sourceName": "contracts/Muskoin.sol",
  "abi": [
    {
      "inputs": [
        {
          "internalType": "address",
          "name": "minter",
          "type": "address"
        }
      ],
      "stateMutability": "nonpayable",
      "type": "constructor"
    },
    {
      "anonymous": false,
      "inputs": [
        {
          "indexed": true,
          "internalType": "address",
          "name": "owner",
          "type": "address"
        },
        {
          "indexed": true,
          "internalType": "address",
          "name": "approved",
          "type": "address"
        },
        {
          "indexed": true,
          "internalType": "uint256",
          "name": "tokenId",
          "type": "uint256"
        }
      ],
      "name": "Approval",
      "type": "event"
    },
    {
      "anonymous": false,
      "inputs": [
        {
          "indexed": true,
          "internalType": "address",
          "name": "owner",
          "type": "address"
        },
        {
          "indexed": true,
          "internalType": "address",
          "name": "operator",
          "type": "address"
        },
        {
          "indexed": false,
          "internalType": "bool",
          "name": "approved",
          "type": "bool"
        }
      ],
      "name": "ApprovalForAll",
      "type": "event"
    },
    {
      "anonymous": false,
      "inputs": [
        {
          "indexed": true,
          "internalType": "bytes32",
          "name": "role",
          "type": "bytes32"
        },
        {
          "indexed": true,
          "internalType": "bytes32",
          "name": "previousAdminRole",
          "type": "bytes32"
        },
        {
          "indexed": true,
          "internalType": "bytes32",
          "name": "newAdminRole",
          "type": "bytes32"
        }
      ],
      "name": "RoleAdminChanged",
      "type": "event"
    },
    {
      "anonymous": false,
      "inputs": [
        {
          "indexed": true,
          "internalType": "bytes32",
          "name": "role",
          "type": "bytes32"
        },
        {
          "indexed": true,
          "internalType": "address",
          "name": "account",
          "type": "address"
        },
        {
          "indexed": true,
          "internalType": "address",
          "name": "sender",
          "type": "address"
        }
      ],
      "name": "RoleGranted",
      "type": "event"
    },
    {
      "anonymous": false,
      "inputs": [
        {
          "indexed": true,
          "internalType": "bytes32",
          "name": "role",
          "type": "bytes32"
        },
        {
          "indexed": true,
          "internalType": "address",
          "name": "account",
          "type": "address"
        },
        {
          "indexed": true,
          "internalType": "address",
          "name": "sender",
          "type": "address"
        }
      ],
      "name": "RoleRevoked",
      "type": "event"
    },
    {
      "anonymous": false,
      "inputs": [
        {
          "indexed": true,
          "internalType": "address",
          "name": "from",
          "type": "address"
        },
        {
          "indexed": true,
          "internalType": "address",
          "name": "to",
          "type": "address"
        },
        {
          "indexed": true,
          "internalType": "uint256",
          "name": "tokenId",
          "type": "uint256"
        }
      ],
      "name": "Transfer",
      "type": "event"
    },
    {
      "inputs": [],
      "name": "DEFAULT_ADMIN_ROLE",
      "outputs": [
        {
          "internalType": "bytes32",
          "name": "",
          "type": "bytes32"
        }
      ],
      "stateMutability": "view",
      "type": "function"
    },
    {
      "inputs": [],
      "name": "MINTER_ADMIN_ROLE",
      "outputs": [
        {
          "internalType": "bytes32",
          "name": "",
          "type": "bytes32"
        }
      ],
      "stateMutability": "view",
      "type": "function"
    },
    {
      "inputs": [],
      "name": "MINTER_ROLE",
      "outputs": [
        {
          "internalType": "bytes32",
          "name": "",
          "type": "bytes32"
        }
      ],
      "stateMutability": "view",
      "type": "function"
    },
    {
      "inputs": [
        {
          "internalType": "address",
          "name": "to",
          "type": "address"
        },
        {
          "internalType": "uint256",
          "name": "tokenId",
          "type": "uint256"
        }
      ],
      "name": "approve",
      "outputs": [],
      "stateMutability": "nonpayable",
      "type": "function"
    },
    {
      "inputs": [
        {
          "internalType": "address",
          "name": "owner",
          "type": "address"
        }
      ],
      "name": "balanceOf",
      "outputs": [
        {
          "internalType": "uint256",
          "name": "",
          "type": "uint256"
        }
      ],
      "stateMutability": "view",
      "type": "function"
    },
    {
      "inputs": [],
      "name": "baseURI",
      "outputs": [
        {
          "internalType": "string",
          "name": "",
          "type": "string"
        }
      ],
      "stateMutability": "view",
      "type": "function"
    },
    {
      "inputs": [
        {
          "internalType": "uint256",
          "name": "tokenId",
          "type": "uint256"
        }
      ],
      "name": "getApproved",
      "outputs": [
        {
          "internalType": "address",
          "name": "",
          "type": "address"
        }
      ],
      "stateMutability": "view",
      "type": "function"
    },
    {
      "inputs": [
        {
          "internalType": "bytes32",
          "name": "role",
          "type": "bytes32"
        }
      ],
      "name": "getRoleAdmin",
      "outputs": [
        {
          "internalType": "bytes32",
          "name": "",
          "type": "bytes32"
        }
      ],
      "stateMutability": "view",
      "type": "function"
    },
    {
      "inputs": [
        {
          "internalType": "bytes32",
          "name": "role",
          "type": "bytes32"
        },
        {
          "internalType": "uint256",
          "name": "index",
          "type": "uint256"
        }
      ],
      "name": "getRoleMember",
      "outputs": [
        {
          "internalType": "address",
          "name": "",
          "type": "address"
        }
      ],
      "stateMutability": "view",
      "type": "function"
    },
    {
      "inputs": [
        {
          "internalType": "bytes32",
          "name": "role",
          "type": "bytes32"
        }
      ],
      "name": "getRoleMemberCount",
      "outputs": [
        {
          "internalType": "uint256",
          "name": "",
          "type": "uint256"
        }
      ],
      "stateMutability": "view",
      "type": "function"
    },
    {
      "inputs": [
        {
          "internalType": "bytes32",
          "name": "role",
          "type": "bytes32"
        },
        {
          "internalType": "address",
          "name": "account",
          "type": "address"
        }
      ],
      "name": "grantRole",
      "outputs": [],
      "stateMutability": "nonpayable",
      "type": "function"
    },
    {
      "inputs": [
        {
          "internalType": "bytes32",
          "name": "role",
          "type": "bytes32"
        },
        {
          "internalType": "address",
          "name": "account",
          "type": "address"
        }
      ],
      "name": "hasRole",
      "outputs": [
        {
          "internalType": "bool",
          "name": "",
          "type": "bool"
        }
      ],
      "stateMutability": "view",
      "type": "function"
    },
    {
      "inputs": [
        {
          "internalType": "address",
          "name": "owner",
          "type": "address"
        },
        {
          "internalType": "address",
          "name": "operator",
          "type": "address"
        }
      ],
      "name": "isApprovedForAll",
      "outputs": [
        {
          "internalType": "bool",
          "name": "",
          "type": "bool"
        }
      ],
      "stateMutability": "view",
      "type": "function"
    },
    {
      "inputs": [
        {
          "internalType": "address",
          "name": "muskovite",
          "type": "address"
        },
        {
          "internalType": "string",
          "name": "memeURI",
          "type": "string"
        }
      ],
      "name": "memeAward",
      "outputs": [
        {
          "internalType": "uint256",
          "name": "",
          "type": "uint256"
        }
      ],
      "stateMutability": "nonpayable",
      "type": "function"
    },
    {
      "inputs": [],
      "name": "name",
      "outputs": [
        {
          "internalType": "string",
          "name": "",
          "type": "string"
        }
      ],
      "stateMutability": "view",
      "type": "function"
    },
    {
      "inputs": [
        {
          "internalType": "uint256",
          "name": "tokenId",
          "type": "uint256"
        }
      ],
      "name": "ownerOf",
      "outputs": [
        {
          "internalType": "address",
          "name": "",
          "type": "address"
        }
      ],
      "stateMutability": "view",
      "type": "function"
    },
    {
      "inputs": [
        {
          "internalType": "bytes32",
          "name": "role",
          "type": "bytes32"
        },
        {
          "internalType": "address",
          "name": "account",
          "type": "address"
        }
      ],
      "name": "renounceRole",
      "outputs": [],
      "stateMutability": "nonpayable",
      "type": "function"
    },
    {
      "inputs": [
        {
          "internalType": "bytes32",
          "name": "role",
          "type": "bytes32"
        },
        {
          "internalType": "address",
          "name": "account",
          "type": "address"
        }
      ],
      "name": "revokeRole",
      "outputs": [],
      "stateMutability": "nonpayable",
      "type": "function"
    },
    {
      "inputs": [
        {
          "internalType": "address",
          "name": "from",
          "type": "address"
        },
        {
          "internalType": "address",
          "name": "to",
          "type": "address"
        },
        {
          "internalType": "uint256",
          "name": "tokenId",
          "type": "uint256"
        }
      ],
      "name": "safeTransferFrom",
      "outputs": [],
      "stateMutability": "nonpayable",
      "type": "function"
    },
    {
      "inputs": [
        {
          "internalType": "address",
          "name": "from",
          "type": "address"
        },
        {
          "internalType": "address",
          "name": "to",
          "type": "address"
        },
        {
          "internalType": "uint256",
          "name": "tokenId",
          "type": "uint256"
        },
        {
          "internalType": "bytes",
          "name": "_data",
          "type": "bytes"
        }
      ],
      "name": "safeTransferFrom",
      "outputs": [],
      "stateMutability": "nonpayable",
      "type": "function"
    },
    {
      "inputs": [
        {
          "internalType": "address",
          "name": "operator",
          "type": "address"
        },
        {
          "internalType": "bool",
          "name": "approved",
          "type": "bool"
        }
      ],
      "name": "setApprovalForAll",
      "outputs": [],
      "stateMutability": "nonpayable",
      "type": "function"
    },
    {
      "inputs": [
        {
          "internalType": "bytes4",
          "name": "interfaceId",
          "type": "bytes4"
        }
      ],
      "name": "supportsInterface",
      "outputs": [
        {
          "internalType": "bool",
          "name": "",
          "type": "bool"
        }
      ],
      "stateMutability": "view",
      "type": "function"
    },
    {
      "inputs": [],
      "name": "symbol",
      "outputs": [
        {
          "internalType": "string",
          "name": "",
          "type": "string"
        }
      ],
      "stateMutability": "view",
      "type": "function"
    },
    {
      "inputs": [
        {
          "internalType": "uint256",
          "name": "index",
          "type": "uint256"
        }
      ],
      "name": "tokenByIndex",
      "outputs": [
        {
          "internalType": "uint256",
          "name": "",
          "type": "uint256"
        }
      ],
      "stateMutability": "view",
      "type": "function"
    },
    {
      "inputs": [
        {
          "internalType": "address",
          "name": "owner",
          "type": "address"
        },
        {
          "internalType": "uint256",
          "name": "index",
          "type": "uint256"
        }
      ],
      "name": "tokenOfOwnerByIndex",
      "outputs": [
        {
          "internalType": "uint256",
          "name": "",
          "type": "uint256"
        }
      ],
      "stateMutability": "view",
      "type": "function"
    },
    {
      "inputs": [
        {
          "internalType": "uint256",
          "name": "tokenId",
          "type": "uint256"
        }
      ],
      "name": "tokenURI",
      "outputs": [
        {
          "internalType": "string",
          "name": "",
          "type": "string"
        }
      ],
      "stateMutability": "view",
      "type": "function"
    },
    {
      "inputs": [],
      "name": "totalSupply",
      "outputs": [
        {
          "internalType": "uint256",
          "name": "",
          "type": "uint256"
        }
      ],
      "stateMutability": "view",
      "type": "function"
    },
    {
      "inputs": [
        {
          "internalType": "address",
          "name": "from",
          "type": "address"
        },
        {
          "internalType": "address",
          "name": "to",
          "type": "address"
        },
        {
          "internalType": "uint256",
          "name": "tokenId",
          "type": "uint256"
        }
      ],
      "name": "transferFrom",
      "outputs": [],
      "stateMutability": "nonpayable",
      "type": "function"
    }
  ],
  "bytecode": "0x60806040523480156200001157600080fd5b5060405162003a8538038062003a85833981810160405260208110156200003757600080fd5b81019080805190602001909291905050506040518060400160405280600781526020017f4d75736b6f696e000000000000000000000000000000000000000000000000008152506040518060400160405280600481526020017f454d433200000000000000000000000000000000000000000000000000000000815250620000cc6301ffc9a760e01b6200020560201b60201c565b8160069080519060200190620000e492919062000509565b508060079080519060200190620000fd92919062000509565b50620001166380ac58cd60e01b6200020560201b60201c565b6200012e635b5e139f60e01b6200020560201b60201c565b6200014663780e9d6360e01b6200020560201b60201c565b50506200017a7f9f2df0fed2c77648de5860a4cc508cd0818c85b8b8a1ab4ceeef8d981c8956a6826200030e60201b60201c565b620001ac7f70480ee89cb38eff00b7d23da25713d52ce19c6ed428691d22c58b2f615e3d67826200030e60201b60201c565b620001fe7f9f2df0fed2c77648de5860a4cc508cd0818c85b8b8a1ab4ceeef8d981c8956a67f70480ee89cb38eff00b7d23da25713d52ce19c6ed428691d22c58b2f615e3d676200032460201b60201c565b50620005af565b63ffffffff60e01b817bffffffffffffffffffffffffffffffffffffffffffffffffffffffff19161415620002a2576040517f08c379a000000000000000000000000000000000000000000000000000000000815260040180806020018281038252601c8152602001807f4552433136353a20696e76616c696420696e746572666163652069640000000081525060200191505060405180910390fd5b6001600080837bffffffffffffffffffffffffffffffffffffffffffffffffffffffff19167bffffffffffffffffffffffffffffffffffffffffffffffffffffffff1916815260200190815260200160002060006101000a81548160ff02191690831515021790555050565b6200032082826200038860201b60201c565b5050565b80600a600084815260200190815260200160002060020154837fbd79b86ffe0ab8e8776151514217cd7cacd52c909f66475c3af44e129f0b00ff60405160405180910390a480600a6000848152602001908152602001600020600201819055505050565b620003b781600a60008581526020019081526020016000206000016200042c60201b62001bea1790919060201c565b156200042857620003cd6200046460201b60201c565b73ffffffffffffffffffffffffffffffffffffffff168173ffffffffffffffffffffffffffffffffffffffff16837f2f8788117e7eff1d82e926ec794901d17c78024a50270940304540a733656f0d60405160405180910390a45b5050565b60006200045c836000018373ffffffffffffffffffffffffffffffffffffffff1660001b6200046c60201b60201c565b905092915050565b600033905090565b6000620004808383620004e660201b60201c565b620004db578260000182908060018154018082558091505060019003906000526020600020016000909190919091505582600001805490508360010160008481526020019081526020016000208190555060019050620004e0565b600090505b92915050565b600080836001016000848152602001908152602001600020541415905092915050565b828054600181600116156101000203166002900490600052602060002090601f016020900481019282601f106200054c57805160ff19168380011785556200057d565b828001600101855582156200057d579182015b828111156200057c5782518255916020019190600101906200055f565b5b5090506200058c919062000590565b5090565b5b80821115620005ab57600081600090555060010162000591565b5090565b6134c680620005bf6000396000f3fe608060405234801561001057600080fd5b50600436106101c45760003560e01c80636352211e116100f9578063a22cb46511610097578063ca15c87311610071578063ca15c87314610b74578063d539139314610bb6578063d547741f14610bd4578063e985e9c514610c22576101c4565b8063a22cb46514610978578063b88d4fde146109c8578063c87b56dd14610acd576101c4565b80639010d07c116100d35780639010d07c1461081157806391d148541461087357806395d89b41146108d7578063a217fddf1461095a576101c4565b80636352211e146106de5780636c0360eb1461073657806370a08231146107b9576101c4565b8063248a9ca3116101665780633137f73e116101405780633137f73e146104f157806336568abe146105e057806342842e0e1461062e5780634f6ccce71461069c576101c4565b8063248a9ca3146103ff5780632f2ff15d146104415780632f745c591461048f576101c4565b8063095ea7b3116101a2578063095ea7b3146103075780631339324b1461035557806318160ddd1461037357806323b872dd14610391576101c4565b806301ffc9a7146101c957806306fdde031461022c578063081812fc146102af575b600080fd5b610214600480360360208110156101df57600080fd5b8101908080357bffffffffffffffffffffffffffffffffffffffffffffffffffffffff19169060200190929190505050610c9c565b60405180821515815260200191505060405180910390f35b610234610d03565b6040518080602001828103825283818151815260200191508051906020019080838360005b83811015610274578082015181840152602081019050610259565b50505050905090810190601f1680156102a15780820380516001836020036101000a031916815260200191505b509250505060405180910390f35b6102db600480360360208110156102c557600080fd5b8101908080359060200190929190505050610da5565b604051808273ffffffffffffffffffffffffffffffffffffffff16815260200191505060405180910390f35b6103536004803603604081101561031d57600080fd5b81019080803573ffffffffffffffffffffffffffffffffffffffff16906020019092919080359060200190929190505050610e40565b005b61035d610f84565b6040518082815260200191505060405180910390f35b61037b610fa8565b6040518082815260200191505060405180910390f35b6103fd600480360360608110156103a757600080fd5b81019080803573ffffffffffffffffffffffffffffffffffffffff169060200190929190803573ffffffffffffffffffffffffffffffffffffffff16906020019092919080359060200190929190505050610fb9565b005b61042b6004803603602081101561041557600080fd5b810190808035906020019092919050505061102f565b6040518082815260200191505060405180910390f35b61048d6004803603604081101561045757600080fd5b8101908080359060200190929190803573ffffffffffffffffffffffffffffffffffffffff16906020019092919050505061104f565b005b6104db600480360360408110156104a557600080fd5b81019080803573ffffffffffffffffffffffffffffffffffffffff169060200190929190803590602001909291905050506110d9565b6040518082815260200191505060405180910390f35b6105ca6004803603604081101561050757600080fd5b81019080803573ffffffffffffffffffffffffffffffffffffffff1690602001909291908035906020019064010000000081111561054457600080fd5b82018360208201111561055657600080fd5b8035906020019184600183028401116401000000008311171561057857600080fd5b91908080601f016020809104026020016040519081016040528093929190818152602001838380828437600081840152601f19601f820116905080830192505050505050509192919290505050611134565b6040518082815260200191505060405180910390f35b61062c600480360360408110156105f657600080fd5b8101908080359060200190929190803573ffffffffffffffffffffffffffffffffffffffff1690602001909291905050506111eb565b005b61069a6004803603606081101561064457600080fd5b81019080803573ffffffffffffffffffffffffffffffffffffffff169060200190929190803573ffffffffffffffffffffffffffffffffffffffff16906020019092919080359060200190929190505050611284565b005b6106c8600480360360208110156106b257600080fd5b81019080803590602001909291905050506112a4565b6040518082815260200191505060405180910390f35b61070a600480360360208110156106f457600080fd5b81019080803590602001909291905050506112c7565b604051808273ffffffffffffffffffffffffffffffffffffffff16815260200191505060405180910390f35b61073e6112fe565b6040518080602001828103825283818151815260200191508051906020019080838360005b8381101561077e578082015181840152602081019050610763565b50505050905090810190601f1680156107ab5780820380516001836020036101000a031916815260200191505b509250505060405180910390f35b6107fb600480360360208110156107cf57600080fd5b81019080803573ffffffffffffffffffffffffffffffffffffffff1690602001909291905050506113a0565b6040518082815260200191505060405180910390f35b6108476004803603604081101561082757600080fd5b810190808035906020019092919080359060200190929190505050611475565b604051808273ffffffffffffffffffffffffffffffffffffffff16815260200191505060405180910390f35b6108bf6004803603604081101561088957600080fd5b8101908080359060200190929190803573ffffffffffffffffffffffffffffffffffffffff1690602001909291905050506114a7565b60405180821515815260200191505060405180910390f35b6108df6114d9565b6040518080602001828103825283818151815260200191508051906020019080838360005b8381101561091f578082015181840152602081019050610904565b50505050905090810190601f16801561094c5780820380516001836020036101000a031916815260200191505b509250505060405180910390f35b61096261157b565b6040518082815260200191505060405180910390f35b6109c66004803603604081101561098e57600080fd5b81019080803573ffffffffffffffffffffffffffffffffffffffff169060200190929190803515159060200190929190505050611582565b005b610acb600480360360808110156109de57600080fd5b81019080803573ffffffffffffffffffffffffffffffffffffffff169060200190929190803573ffffffffffffffffffffffffffffffffffffffff1690602001909291908035906020019092919080359060200190640100000000811115610a4557600080fd5b820183602082011115610a5757600080fd5b80359060200191846001830284011164010000000083111715610a7957600080fd5b91908080601f016020809104026020016040519081016040528093929190818152602001838380828437600081840152601f19601f820116905080830192505050505050509192919290505050611738565b005b610af960048036036020811015610ae357600080fd5b81019080803590602001909291905050506117b0565b6040518080602001828103825283818151815260200191508051906020019080838360005b83811015610b39578082015181840152602081019050610b1e565b50505050905090810190601f168015610b665780820380516001836020036101000a031916815260200191505b509250505060405180910390f35b610ba060048036036020811015610b8a57600080fd5b8101908080359060200190929190505050611a81565b6040518082815260200191505060405180910390f35b610bbe611aa8565b6040518082815260200191505060405180910390f35b610c2060048036036040811015610bea57600080fd5b8101908080359060200190929190803573ffffffffffffffffffffffffffffffffffffffff169060200190929190505050611acc565b005b610c8460048036036040811015610c3857600080fd5b81019080803573ffffffffffffffffffffffffffffffffffffffff169060200190929190803573ffffffffffffffffffffffffffffffffffffffff169060200190929190505050611b56565b60405180821515815260200191505060405180910390f35b6000806000837bffffffffffffffffffffffffffffffffffffffffffffffffffffffff19167bffffffffffffffffffffffffffffffffffffffffffffffffffffffff1916815260200190815260200160002060009054906101000a900460ff169050919050565b606060068054600181600116156101000203166002900480601f016020809104026020016040519081016040528092919081815260200182805460018160011615610100020316600290048015610d9b5780601f10610d7057610100808354040283529160200191610d9b565b820191906000526020600020905b815481529060010190602001808311610d7e57829003601f168201915b5050505050905090565b6000610db082611c1a565b610e05576040517f08c379a000000000000000000000000000000000000000000000000000000000815260040180806020018281038252602c815260200180613360602c913960400191505060405180910390fd5b6004600083815260200190815260200160002060009054906101000a900473ffffffffffffffffffffffffffffffffffffffff169050919050565b6000610e4b826112c7565b90508073ffffffffffffffffffffffffffffffffffffffff168373ffffffffffffffffffffffffffffffffffffffff161415610ed2576040517f08c379a00000000000000000000000000000000000000000000000000000000081526004018080602001828103825260218152602001806134106021913960400191505060405180910390fd5b8073ffffffffffffffffffffffffffffffffffffffff16610ef1611c37565b73ffffffffffffffffffffffffffffffffffffffff161480610f205750610f1f81610f1a611c37565b611b56565b5b610f75576040517f08c379a00000000000000000000000000000000000000000000000000000000081526004018080602001828103825260388152602001806132b36038913960400191505060405180910390fd5b610f7f8383611c3f565b505050565b7f70480ee89cb38eff00b7d23da25713d52ce19c6ed428691d22c58b2f615e3d6781565b6000610fb46002611cf8565b905090565b610fca610fc4611c37565b82611d0d565b61101f576040517f08c379a00000000000000000000000000000000000000000000000000000000081526004018080602001828103825260318152602001806134316031913960400191505060405180910390fd5b61102a838383611e01565b505050565b6000600a6000838152602001908152602001600020600201549050919050565b611076600a600084815260200190815260200160002060020154611071611c37565b6114a7565b6110cb576040517f08c379a000000000000000000000000000000000000000000000000000000000815260040180806020018281038252602f81526020018061317f602f913960400191505060405180910390fd5b6110d58282612044565b5050565b600061112c82600160008673ffffffffffffffffffffffffffffffffffffffff1673ffffffffffffffffffffffffffffffffffffffff1681526020019081526020016000206120d890919063ffffffff16565b905092915050565b60006111607f9f2df0fed2c77648de5860a4cc508cd0818c85b8b8a1ab4ceeef8d981c8956a6336114a7565b6111b5576040517f08c379a000000000000000000000000000000000000000000000000000000000815260040180806020018281038252602d8152602001806131e0602d913960400191505060405180910390fd5b6111bf600b6120f2565b60006111cb600b612108565b90506111d78482612116565b6111e1818461230a565b8091505092915050565b6111f3611c37565b73ffffffffffffffffffffffffffffffffffffffff168173ffffffffffffffffffffffffffffffffffffffff1614611276576040517f08c379a000000000000000000000000000000000000000000000000000000000815260040180806020018281038252602f815260200180613462602f913960400191505060405180910390fd5b6112808282612394565b5050565b61129f83838360405180602001604052806000815250611738565b505050565b6000806112bb83600261242890919063ffffffff16565b50905080915050919050565b60006112f7826040518060600160405280602981526020016133156029913960026124549092919063ffffffff16565b9050919050565b606060098054600181600116156101000203166002900480601f0160208091040260200160405190810160405280929190818152602001828054600181600116156101000203166002900480156113965780601f1061136b57610100808354040283529160200191611396565b820191906000526020600020905b81548152906001019060200180831161137957829003601f168201915b5050505050905090565b60008073ffffffffffffffffffffffffffffffffffffffff168273ffffffffffffffffffffffffffffffffffffffff161415611427576040517f08c379a000000000000000000000000000000000000000000000000000000000815260040180806020018281038252602a8152602001806132eb602a913960400191505060405180910390fd5b61146e600160008473ffffffffffffffffffffffffffffffffffffffff1673ffffffffffffffffffffffffffffffffffffffff168152602001908152602001600020612473565b9050919050565b600061149f82600a600086815260200190815260200160002060000161248890919063ffffffff16565b905092915050565b60006114d182600a60008681526020019081526020016000206000016124a290919063ffffffff16565b905092915050565b606060078054600181600116156101000203166002900480601f0160208091040260200160405190810160405280929190818152602001828054600181600116156101000203166002900480156115715780601f1061154657610100808354040283529160200191611571565b820191906000526020600020905b81548152906001019060200180831161155457829003601f168201915b5050505050905090565b6000801b81565b61158a611c37565b73ffffffffffffffffffffffffffffffffffffffff168273ffffffffffffffffffffffffffffffffffffffff16141561162b576040517f08c379a00000000000000000000000000000000000000000000000000000000081526004018080602001828103825260198152602001807f4552433732313a20617070726f766520746f2063616c6c65720000000000000081525060200191505060405180910390fd5b8060056000611638611c37565b73ffffffffffffffffffffffffffffffffffffffff1673ffffffffffffffffffffffffffffffffffffffff16815260200190815260200160002060008473ffffffffffffffffffffffffffffffffffffffff1673ffffffffffffffffffffffffffffffffffffffff16815260200190815260200160002060006101000a81548160ff0219169083151502179055508173ffffffffffffffffffffffffffffffffffffffff166116e5611c37565b73ffffffffffffffffffffffffffffffffffffffff167f17307eab39ab6107e8899845ad3d59bd9653f200f220920489ca2b5937696c318360405180821515815260200191505060405180910390a35050565b611749611743611c37565b83611d0d565b61179e576040517f08c379a00000000000000000000000000000000000000000000000000000000081526004018080602001828103825260318152602001806134316031913960400191505060405180910390fd5b6117aa848484846124d2565b50505050565b60606117bb82611c1a565b611810576040517f08c379a000000000000000000000000000000000000000000000000000000000815260040180806020018281038252602f8152602001806133e1602f913960400191505060405180910390fd5b6060600860008481526020019081526020016000208054600181600116156101000203166002900480601f0160208091040260200160405190810160405280929190818152602001828054600181600116156101000203166002900480156118b95780601f1061188e576101008083540402835291602001916118b9565b820191906000526020600020905b81548152906001019060200180831161189c57829003601f168201915b5050505050905060606118ca6112fe565b90506000815114156118e0578192505050611a7c565b6000825111156119b15780826040516020018083805190602001908083835b6020831061192257805182526020820191506020810190506020830392506118ff565b6001836020036101000a03801982511681845116808217855250505050505090500182805190602001908083835b602083106119735780518252602082019150602081019050602083039250611950565b6001836020036101000a0380198251168184511680821785525050505050509050019250505060405160208183030381529060405292505050611a7c565b806119bb85612544565b6040516020018083805190602001908083835b602083106119f157805182526020820191506020810190506020830392506119ce565b6001836020036101000a03801982511681845116808217855250505050505090500182805190602001908083835b60208310611a425780518252602082019150602081019050602083039250611a1f565b6001836020036101000a03801982511681845116808217855250505050505090500192505050604051602081830303815290604052925050505b919050565b6000611aa1600a600084815260200190815260200160002060000161268b565b9050919050565b7f9f2df0fed2c77648de5860a4cc508cd0818c85b8b8a1ab4ceeef8d981c8956a681565b611af3600a600084815260200190815260200160002060020154611aee611c37565b6114a7565b611b48576040517f08c379a00000000000000000000000000000000000000000000000000000000081526004018080602001828103825260308152602001806132836030913960400191505060405180910390fd5b611b528282612394565b5050565b6000600560008473ffffffffffffffffffffffffffffffffffffffff1673ffffffffffffffffffffffffffffffffffffffff16815260200190815260200160002060008373ffffffffffffffffffffffffffffffffffffffff1673ffffffffffffffffffffffffffffffffffffffff16815260200190815260200160002060009054906101000a900460ff16905092915050565b6000611c12836000018373ffffffffffffffffffffffffffffffffffffffff1660001b6126a0565b905092915050565b6000611c3082600261271090919063ffffffff16565b9050919050565b600033905090565b816004600083815260200190815260200160002060006101000a81548173ffffffffffffffffffffffffffffffffffffffff021916908373ffffffffffffffffffffffffffffffffffffffff160217905550808273ffffffffffffffffffffffffffffffffffffffff16611cb2836112c7565b73ffffffffffffffffffffffffffffffffffffffff167f8c5be1e5ebec7d5bd14f71427d1e84f3dd0314c0f7b2291e5b200ac8c7c3b92560405160405180910390a45050565b6000611d068260000161272a565b9050919050565b6000611d1882611c1a565b611d6d576040517f08c379a000000000000000000000000000000000000000000000000000000000815260040180806020018281038252602c815260200180613257602c913960400191505060405180910390fd5b6000611d78836112c7565b90508073ffffffffffffffffffffffffffffffffffffffff168473ffffffffffffffffffffffffffffffffffffffff161480611de757508373ffffffffffffffffffffffffffffffffffffffff16611dcf84610da5565b73ffffffffffffffffffffffffffffffffffffffff16145b80611df85750611df78185611b56565b5b91505092915050565b8273ffffffffffffffffffffffffffffffffffffffff16611e21826112c7565b73ffffffffffffffffffffffffffffffffffffffff1614611e8d576040517f08c379a00000000000000000000000000000000000000000000000000000000081526004018080602001828103825260298152602001806133b86029913960400191505060405180910390fd5b600073ffffffffffffffffffffffffffffffffffffffff168273ffffffffffffffffffffffffffffffffffffffff161415611f13576040517f08c379a000000000000000000000000000000000000000000000000000000000815260040180806020018281038252602481526020018061320d6024913960400191505060405180910390fd5b611f1e83838361273b565b611f29600082611c3f565b611f7a81600160008673ffffffffffffffffffffffffffffffffffffffff1673ffffffffffffffffffffffffffffffffffffffff16815260200190815260200160002061274090919063ffffffff16565b50611fcc81600160008573ffffffffffffffffffffffffffffffffffffffff1673ffffffffffffffffffffffffffffffffffffffff16815260200190815260200160002061275a90919063ffffffff16565b50611fe3818360026127749092919063ffffffff16565b50808273ffffffffffffffffffffffffffffffffffffffff168473ffffffffffffffffffffffffffffffffffffffff167fddf252ad1be2c89b69c2b068fc378daa952ba7f163c4a11628f55a4df523b3ef60405160405180910390a4505050565b61206c81600a6000858152602001908152602001600020600001611bea90919063ffffffff16565b156120d457612079611c37565b73ffffffffffffffffffffffffffffffffffffffff168173ffffffffffffffffffffffffffffffffffffffff16837f2f8788117e7eff1d82e926ec794901d17c78024a50270940304540a733656f0d60405160405180910390a45b5050565b60006120e783600001836127a9565b60001c905092915050565b6001816000016000828254019250508190555050565b600081600001549050919050565b600073ffffffffffffffffffffffffffffffffffffffff168273ffffffffffffffffffffffffffffffffffffffff1614156121b9576040517f08c379a00000000000000000000000000000000000000000000000000000000081526004018080602001828103825260208152602001807f4552433732313a206d696e7420746f20746865207a65726f206164647265737381525060200191505060405180910390fd5b6121c281611c1a565b15612235576040517f08c379a000000000000000000000000000000000000000000000000000000000815260040180806020018281038252601c8152602001807f4552433732313a20746f6b656e20616c7265616479206d696e7465640000000081525060200191505060405180910390fd5b6122416000838361273b565b61229281600160008573ffffffffffffffffffffffffffffffffffffffff1673ffffffffffffffffffffffffffffffffffffffff16815260200190815260200160002061275a90919063ffffffff16565b506122a9818360026127749092919063ffffffff16565b50808273ffffffffffffffffffffffffffffffffffffffff16600073ffffffffffffffffffffffffffffffffffffffff167fddf252ad1be2c89b69c2b068fc378daa952ba7f163c4a11628f55a4df523b3ef60405160405180910390a45050565b61231382611c1a565b612368576040517f08c379a000000000000000000000000000000000000000000000000000000000815260040180806020018281038252602c81526020018061338c602c913960400191505060405180910390fd5b8060086000848152602001908152602001600020908051906020019061238f9291906130bf565b505050565b6123bc81600a600085815260200190815260200160002060000161282c90919063ffffffff16565b15612424576123c9611c37565b73ffffffffffffffffffffffffffffffffffffffff168173ffffffffffffffffffffffffffffffffffffffff16837ff6391f5c32d9c69d2a47ea670b442974b53935d1edc7fd64eb21e047a839171b60405160405180910390a45b5050565b60008060008061243b866000018661285c565b915091508160001c8160001c9350935050509250929050565b6000612467846000018460001b846128f5565b60001c90509392505050565b6000612481826000016129eb565b9050919050565b600061249783600001836127a9565b60001c905092915050565b60006124ca836000018373ffffffffffffffffffffffffffffffffffffffff1660001b6129fc565b905092915050565b6124dd848484611e01565b6124e984848484612a1f565b61253e576040517f08c379a00000000000000000000000000000000000000000000000000000000081526004018080602001828103825260328152602001806131ae6032913960400191505060405180910390fd5b50505050565b6060600082141561258c576040518060400160405280600181526020017f30000000000000000000000000000000000000000000000000000000000000008152509050612686565b600082905060005b600082146125b6578080600101915050600a82816125ae57fe5b049150612594565b60608167ffffffffffffffff811180156125cf57600080fd5b506040519080825280601f01601f1916602001820160405280156126025781602001600182028036833780820191505090505b50905060006001830390508593505b6000841461267e57600a848161262357fe5b0660300160f81b8282806001900393508151811061263d57fe5b60200101907effffffffffffffffffffffffffffffffffffffffffffffffffffffffffffff1916908160001a905350600a848161267657fe5b049350612611565b819450505050505b919050565b6000612699826000016129eb565b9050919050565b60006126ac83836129fc565b61270557826000018290806001815401808255809150506001900390600052602060002001600090919091909150558260000180549050836001016000848152602001908152602001600020819055506001905061270a565b600090505b92915050565b6000612722836000018360001b612c38565b905092915050565b600081600001805490509050919050565b505050565b6000612752836000018360001b612c5b565b905092915050565b600061276c836000018360001b6126a0565b905092915050565b60006127a0846000018460001b8473ffffffffffffffffffffffffffffffffffffffff1660001b612d43565b90509392505050565b60008183600001805490501161280a576040517f08c379a000000000000000000000000000000000000000000000000000000000815260040180806020018281038252602281526020018061315d6022913960400191505060405180910390fd5b82600001828154811061281957fe5b9060005260206000200154905092915050565b6000612854836000018373ffffffffffffffffffffffffffffffffffffffff1660001b612c5b565b905092915050565b600080828460000180549050116128be576040517f08c379a000000000000000000000000000000000000000000000000000000000815260040180806020018281038252602281526020018061333e6022913960400191505060405180910390fd5b60008460000184815481106128cf57fe5b906000526020600020906002020190508060000154816001015492509250509250929050565b600080846001016000858152602001908152602001600020549050600081141583906129bc576040517f08c379a00000000000000000000000000000000000000000000000000000000081526004018080602001828103825283818151815260200191508051906020019080838360005b83811015612981578082015181840152602081019050612966565b50505050905090810190601f1680156129ae5780820380516001836020036101000a031916815260200191505b509250505060405180910390fd5b508460000160018203815481106129cf57fe5b9060005260206000209060020201600101549150509392505050565b600081600001805490509050919050565b600080836001016000848152602001908152602001600020541415905092915050565b6000612a408473ffffffffffffffffffffffffffffffffffffffff16612e1f565b612a4d5760019050612c30565b6060612bb763150b7a0260e01b612a62611c37565b888787604051602401808573ffffffffffffffffffffffffffffffffffffffff1681526020018473ffffffffffffffffffffffffffffffffffffffff16815260200183815260200180602001828103825283818151815260200191508051906020019080838360005b83811015612ae6578082015181840152602081019050612acb565b50505050905090810190601f168015612b135780820380516001836020036101000a031916815260200191505b5095505050505050604051602081830303815290604052907bffffffffffffffffffffffffffffffffffffffffffffffffffffffff19166020820180517bffffffffffffffffffffffffffffffffffffffffffffffffffffffff83818316178352505050506040518060600160405280603281526020016131ae603291398773ffffffffffffffffffffffffffffffffffffffff16612e329092919063ffffffff16565b90506000818060200190516020811015612bd057600080fd5b8101908080519060200190929190505050905063150b7a0260e01b7bffffffffffffffffffffffffffffffffffffffffffffffffffffffff1916817bffffffffffffffffffffffffffffffffffffffffffffffffffffffff191614925050505b949350505050565b600080836001016000848152602001908152602001600020541415905092915050565b60008083600101600084815260200190815260200160002054905060008114612d375760006001820390506000600186600001805490500390506000866000018281548110612ca657fe5b9060005260206000200154905080876000018481548110612cc357fe5b9060005260206000200181905550600183018760010160008381526020019081526020016000208190555086600001805480612cfb57fe5b60019003818190600052602060002001600090559055866001016000878152602001908152602001600020600090556001945050505050612d3d565b60009150505b92915050565b6000808460010160008581526020019081526020016000205490506000811415612dea57846000016040518060400160405280868152602001858152509080600181540180825580915050600190039060005260206000209060020201600090919091909150600082015181600001556020820151816001015550508460000180549050856001016000868152602001908152602001600020819055506001915050612e18565b82856000016001830381548110612dfd57fe5b90600052602060002090600202016001018190555060009150505b9392505050565b600080823b905060008111915050919050565b6060612e418484600085612e4a565b90509392505050565b606082471015612ea5576040517f08c379a00000000000000000000000000000000000000000000000000000000081526004018080602001828103825260268152602001806132316026913960400191505060405180910390fd5b612eae85612e1f565b612f20576040517f08c379a000000000000000000000000000000000000000000000000000000000815260040180806020018281038252601d8152602001807f416464726573733a2063616c6c20746f206e6f6e2d636f6e747261637400000081525060200191505060405180910390fd5b600060608673ffffffffffffffffffffffffffffffffffffffff1685876040518082805190602001908083835b60208310612f705780518252602082019150602081019050602083039250612f4d565b6001836020036101000a03801982511681845116808217855250505050505090500191505060006040518083038185875af1925050503d8060008114612fd2576040519150601f19603f3d011682016040523d82523d6000602084013e612fd7565b606091505b5091509150612fe7828286612ff3565b92505050949350505050565b60608315613003578290506130b8565b6000835111156130165782518084602001fd5b816040517f08c379a00000000000000000000000000000000000000000000000000000000081526004018080602001828103825283818151815260200191508051906020019080838360005b8381101561307d578082015181840152602081019050613062565b50505050905090810190601f1680156130aa5780820380516001836020036101000a031916815260200191505b509250505060405180910390fd5b9392505050565b828054600181600116156101000203166002900490600052602060002090601f016020900481019282601f1061310057805160ff191683800117855561312e565b8280016001018555821561312e579182015b8281111561312d578251825591602001919060010190613112565b5b50905061313b919061313f565b5090565b5b80821115613158576000816000905550600101613140565b509056fe456e756d657261626c655365743a20696e646578206f7574206f6620626f756e6473416363657373436f6e74726f6c3a2073656e646572206d75737420626520616e2061646d696e20746f206772616e744552433732313a207472616e7366657220746f206e6f6e20455243373231526563656976657220696d706c656d656e74657243616c6c6572206973206e6f74206120776f7274687920697373756572206f6620696d6d6f7274616c6974792e4552433732313a207472616e7366657220746f20746865207a65726f2061646472657373416464726573733a20696e73756666696369656e742062616c616e636520666f722063616c6c4552433732313a206f70657261746f7220717565727920666f72206e6f6e6578697374656e7420746f6b656e416363657373436f6e74726f6c3a2073656e646572206d75737420626520616e2061646d696e20746f207265766f6b654552433732313a20617070726f76652063616c6c6572206973206e6f74206f776e6572206e6f7220617070726f76656420666f7220616c6c4552433732313a2062616c616e636520717565727920666f7220746865207a65726f20616464726573734552433732313a206f776e657220717565727920666f72206e6f6e6578697374656e7420746f6b656e456e756d657261626c654d61703a20696e646578206f7574206f6620626f756e64734552433732313a20617070726f76656420717565727920666f72206e6f6e6578697374656e7420746f6b656e4552433732314d657461646174613a2055524920736574206f66206e6f6e6578697374656e7420746f6b656e4552433732313a207472616e73666572206f6620746f6b656e2074686174206973206e6f74206f776e4552433732314d657461646174613a2055524920717565727920666f72206e6f6e6578697374656e7420746f6b656e4552433732313a20617070726f76616c20746f2063757272656e74206f776e65724552433732313a207472616e736665722063616c6c6572206973206e6f74206f776e6572206e6f7220617070726f766564416363657373436f6e74726f6c3a2063616e206f6e6c792072656e6f756e636520726f6c657320666f722073656c66a2646970667358221220bbb671e2efd65ef5da73c3ed001230576f6c8d1e5dbcd6ce7e1304ecf08147a264736f6c63430007030033",
  "linkReferences": {},
  "deployedLinkReferences": {}
}